S02000005B746B696D3035385D5F6C61625B375D5F706172745B345D2E737265637B
S113000045C0000060C000005EC000005CC000008D
S11300105AC0000058C0000056C0000054C0000080
S113002052C0000050C000004EC000004CC0000090
S11300304AC000006DC0000046C0000044C000007B
S113004042C0000040C000003EC000003CC00000B0
S11300503AC0000038C0000036C0000034C00000C0
S113006032C0000030C000002EC000002CC00000D0
S11300702AC0000028C0000026C0000024C00000E0
S113008022C0000020C000001EC0000011241FBEBA
S1130090CFEFD0E4DEBFCDBF11E0A0E0B1E0E4E0FB
S11300A0F5E000E00BBF02C007900D92A430B10749
S11300B0D9F721E0A4E0B1E001C01D92A431B20758
S11300C0E1F769D11DC29CCF8BE0809381008DE75D
S11300D090E0909389008093880082E080936F0081
S11300E0109285001092840080910001909101018A
S11300F0A0910201B091030180930B0190930C0134
S1130100A0930D01B0930E018FB780688FBF08953F
S11301101F920F920FB60F9211248F939F93AF9358
S1130120BF9380910B0190910C01A0910D01B091AE
S11301300E010197A109B10980930B0190930C0161
S1130140A0930D01B0930E01892B8A2B8B2B99F46C
S113015081E080930A018091000190910101A091B6
S11301600201B091030180930B0190930C01A093C1
S11301700D01B0930E01BF91AF919F918F910F909C
S11301800FBE0F901F9018956093000170930101AA
S1130190809302019093030160930B0170930C010F
S11301A080930D0190930E01089580911001813088
S11301B051F028F0823059F0833069F010C081E0AA
S11301C08093100117C082E0809310011AC083E06D
S11301D0809310011DC081E0809310010BC0813019
S11301E049F028F0823069F08330C1F411C01092D4
S11301F00901089580910901887F81608093090134
S1130200089580910901887F82608093090108958F
S113021080910901887F8460809309010895809109
S11302201201813041F018F0823049F00CC081E0B5
S11302308093120111C082E08093120110C081E00A
S11302408093120109C0813039F018F0823069F4CA
S113025006C0109208010895109208010895809133
S11302600801807F886080930801089580910F01C0
S1130270813051F018F0823079F012C081E080931F
S11302800F011092050118C0809107018823A1F085
S113029082E080930F0116C081E080930F010CC0AF
S11302A0813051F018F0823091F40CC08091060135
S11302B08F7E809306010895809106018F7E80933E
S11302C006010895809106018061809306010895D6
S11302D080911301823041F128F4882349F0813060
S11302E069F03AC0843061F138F1853089F134C065
S11302F081E08093040180931301089580910701A4
S1130300813041F4809104018230B0F182E0809325
S113031013010895823081F5809104018A3060F5DB
S113032084E080931301089580910701813021F1C5
S113033083E08093130115C081E080931301089535
S1130340809107018230C1F085E0809313010FC0D2
S113035081E0809313010895833019F0853061F4AE
S113036006C0809104018150809304010895809116
S113037004018F5F8093040108958091110181111C
S113038009C09091090180910801892B909106017F
S1130390892B85B90895CF93DF9300D000D0CDB7D2
S11303A0DEB711B88FEF82B984B915B861E070E097
S11303B080E090E0E9DE88DE1092100110921201D4
S11303C010920F011092130119821A821B821C824F
S11303D0412C512C3201689441F80F2EF8EE8F2EE7
S11303E0F3E09F2EA12CB12CF02D0F2EFCE2CF2E8A
S11303F0DD24D394E12CF12CF02D80B1809587700D
S11304008093070165DF80910701843081F5809135
S1130410040190E0A0E0B0E0481659066A067B06A5
S113042058F189819A81AB81BC81803D9740A105B7
S1130430B10508F052C01ADF89819A81AB81BC8171
S11304400196A11DB11D89839A83AB83BC83412C82
S1130450512C320115C089819A81AB81BC810196EE
S1130460A11DB11D89839A83AB83BC8309C0198202
S11304701A821B821C8204C019821A821B821C826B
S11304809CE2C91691E0D906E104F10420F08DDE66
S1130490C12CD12C7601A8EE8A16A3E09A06A104F9
S11304A0B10420F0BCDE812C912C540166DF8091D4
S11304B00A018823E1F310920A01BFEFCB1ADB0A89
S11304C0EB0AFB0A2FEF821A920AA20AB20A8FEFF2
S11304D0481A580A680A780A90CF89819A81AB81B0
S11304E0BC81805D9740A109B109803D9740A10579
S11304F0B10508F4B0CF19821A821B821C82C0CFC6
S1070500F894FFCF99
S107050401000000EE
S9030000FC
